:020000040000FA
:100000000C945E000C9486000C9486000C94860080
:100010000C9486000C9486000C9486000C94860048
:100020000C9486000C9486000C9486000C94EB04CF
:100030000C9486000C9486000C9486000C94860028
:100040000C9449040C9486000C94B9040C94930409
:100050000C9486000C9486000C9486000C94860008
:100060000C9486000C9486000000000024002700F9
:100070002A0000000000250028002B0004040404CE
:100080000404040402020202020203030303030342
:10009000010204081020408001020408102001021F
:1000A00004081020000000080002010000030407FB
:1000B0000000000000000000C205090911241FBE55
:1000C000CFEFD8E0DEBFCDBF11E0A0E0B1E0ECE2C1
:1000D000F8E102C005900D92A037B107D9F722E0F0
:1000E000A0E7B1E001C01D92A735B207E1F710E02B
:1000F000CDE5D0E004C02197FE010E94FB09CC357C
:10010000D107C9F70E9408060C94090C0C94000052
:1001100090E0FC01EC55FF4F2491FC01E057FF4FAC
:100120003491FC01E458FF4FE491EE23C9F02223FF
:1001300039F0233001F1A8F4213019F1223029F1EE
:10014000F0E0EE0FFF1FEE58FF4FA591B4918FB76F
:10015000F894EC91611126C030953E233C938FBFFB
:1001600008952730A9F02830C9F0243049F780914C
:1001700080008F7D03C0809180008F778093800006
:10018000DFCF84B58F7784BDDBCF84B58F7DFBCF88
:100190008091B0008F778093B000D2CF8091B00073
:1001A0008F7DF9CF3E2BDACF3FB7F894809199013C
:1001B00090919A01A0919B01B0919C0126B5A89BBA
:1001C00005C02F3F19F00196A11DB11D3FBFBA2FE9
:1001D000A92F982F8827BC01CD01620F711D811DA9
:1001E000911D42E0660F771F881F991F4A95D1F72E
:1001F00008950895AF92BF92CF92DF92EF92FF924F
:100200000F931F93CF93DF936C017B018B01040F3E
:10021000151FEB015E01AE18BF08C017D10759F0DA
:100220006991D601ED91FC910190F081E02DC6011C
:100230000995892B79F7C501DF91CF911F910F9116
:10024000FF90EF90DF90CF90BF90AF900895FC01AA
:10025000538D448D252F30E0842F90E0821B930B2B
:10026000541710F0CF96089501970895FC01918DD1
:10027000828D981761F0A28DAE0FBF2FB11D5D96D4
:100280008C91928D9F5F9F73928F90E008958FEF76
:100290009FEF08952FB7F89480919D0190919E0152
:1002A000A0919F01B091A0012FBF8093A9019093CD
:1002B000AA01A093AB01B093AC0181EA91E00E9446
:1002C000360197FF26C02FB7F89480919D01909139
:1002D0009E01A0919F01B091A0012FBF4091A90163
:1002E0005091AA016091AB017091AC01841B950BF8
:1002F000A60BB70B4091A5015091A6016091A701F3
:100300007091A80184179507A607B707B0F28FEF81
:100310009FEF0895FC01918D828D981731F0828DA9
:10032000E80FF11D858D90E008958FEF9FEF089500
:10033000FC01918D228D892F90E0805C9F4F821B64
:1003400091098F739927089581EA91E00E9498019D
:1003500021E0892B09F420E0822F089580E090E0CD
:10036000892B29F00E94A40181110C9400000895AA
:10037000FC01A48DA80FB92FB11DA35ABF4F2C911A
:10038000848D90E001968F739927848FA689B78911
:100390002C93A089B1898C91837080648C93938D08
:1003A000848D981306C00288F389E02D80818F7DAB
:1003B00080830895EF92FF920F931F93CF93DF9363
:1003C000EC0181E0888F9B8D8C8D98131AC0E88991
:1003D000F989808185FF15C09FB7F894EE89FF8960
:1003E0006083E889F98980818370806480839FBFFE
:1003F00081E090E0DF91CF911F910F91FF90EF90FE
:100400000895F62E0B8D10E00F5F1F4F0F7311270D
:10041000E02E8C8D8E110CC00FB607FCFACFE88948
:10042000F989808185FFF5CFCE010E94B801F1CF17
:10043000EB8DEC0FFD2FF11DE35AFF4FF0829FB7BC
:10044000F8940B8FEA89FB8980818062CFCFCF93AC
:10045000DF93EC01888D8823B9F0AA89BB89E889EC
:10046000F9898C9185FD03C0808186FD0DC00FB692
:1004700007FCF7CF8C9185FFF2CF808185FFEDCF10
:10048000CE010E94B801E9CFDF91CF910895CF92BC
:10049000DF92EF92FF92CF93DF93EC01603282E024
:1004A0007807CCF5653B710514F064EB70E0898149
:1004B00028E830E0281B310987FD3395220F331FD0
:1004C000220F331F6901330FEE08FF088A8128E5E8
:1004D00032E0281B310987FD3395220F331F220F8D
:1004E000331F032E000C440B550B2C193D094E09EC
:1004F0005F09DB0177FF02C0B0E0A0E00E947F0946
:1005000024EB30E040E050E00E945509C20ED31EBB
:10051000E41EF51EB601E881EC3070F5298188E80B
:1005200090E0821B910927FD9395880F991F880FF2
:10053000991F681779077CF02A8188E592E0821B71
:10054000910927FD9395880F991F880F991F6817A8
:1005500079070CF4CB010297880F991F4FB7F894D5
:100560002E2F30E0F901EE0FFF1FE20FF31FEE58C0
:10057000FE4F928381834FBFDF91CF91FF90EF9029
:10058000DF90CF900895CF93DF93DC018C918C3076
:1005900008F06DC0CB01FB01E057FF4F2491845858
:1005A0009F4FFC018491882399F090E0880F991F58
:1005B000FC01E859FF4FC591D491FC01EE58FF4F63
:1005C000859194918FB7F894E881E22BE8838FBFEF
:1005D0008C91282F30E0F901EE0FFF1FE20FF31F7F
:1005E000EE58FE4F962F9F736081607C692B60836D
:1005F00011961C92119712961C9212972CE0622F62
:100600000E94EF09829FB001112430E020E0AB018D
:10061000420F531FFA01EE0FFF1FE40FF51FEE58B4
:10062000FE4F908196FD16C02F5F3F4F2C30310555
:1006300071F781110FC01092800082E080938100D9
:100640001092850010928400B19A80916F008260B0
:1006500080936F00EC918E2F90E0FC01EE0FFF1F56
:10066000E80FF91FEE58FE4F8081806480838C91E3
:10067000DF91CF910895FC0101900020E9F73197B7
:10068000AF01481B590BBC0181EA91E00C94FA00C0
:10069000FC0144815581809142029091430284176C
:1006A000950780F080913E0290913F02009751F0B3
:1006B000608171816115710529F00E94FB0B21E0B9
:1006C000892B09F020E0822F0895CF93DF93EC016E
:1006D00088819981009711F00E949D0A19821882E1
:1006E0001D821C821B821A82DF91CF910895FC012A
:1006F00080819181009711F00C949D0A0895FC016E
:1007000080819181009711F00C940D0960E070E0F8
:10071000CB0108950F931F93CF93DF93EC01888152
:100720009981009759F02A813B812617370730F0CD
:1007300081E0DF91CF911F910F9108958B016F5F41
:100740007F4F0E94260B009759F0998388831B8363
:100750000A832C813D81232B59F7FC011082E8CFBD
:1007600080E0E7CFEF92FF920F931F93CF93DF9339
:10077000EC017B01198218821B821A821D821C8265
:10078000FB0101900020E9F731978F01061B170B41
:10079000B8010E948A03811109C0CE01DF91CF9177
:1007A0001F910F91FF90EF900C9465031D830C83B4
:1007B000B70188819981DF91CF911F910F91FF90AF
:1007C000EF900C94F40B9F92AF92BF92CF92DF9276
:1007D000EF92FF920F931F93CF93DF938C016B01E6
:1007E00082E0A82EB12C6230710520F45B0192E00A
:1007F000C92ED12C68E271E0C8010E94B203C091F9
:100800004202D0914302AC16BD0668F5CC16DD0657
:1008100008F4E601E0913E02F0913F02EC0FFD1F6B
:1008200090801082E0903E02F0903F02EA0CFB1CA8
:10083000E114F10471F0F70101900020E9F731971C
:100840006F01CE18DF08B601C8010E948A0381112A
:1008500017C0C8010E94650380913E0290913F023B
:10086000C80FD91F9882C801DF91CF911F910F91B6
:10087000FF90EF90DF90CF90BF90AF909F90089542
:10088000F801D582C482B701808191810E94F40B66
:10089000E3CF1F920F920FB60F9211242F933F9325
:1008A0008F939F93AF93BF9380919D0190919E01F1
:1008B000A0919F01B091A0013091980123E0230FF6
:1008C0002D3758F50196A11DB11D209398018093F5
:1008D0009D0190939E01A0939F01B093A0018091F0
:1008E000990190919A01A0919B01B0919C01019670
:1008F000A11DB11D8093990190939A01A0939B0132
:10090000B0939C01BF91AF919F918F913F912F9197
:100910000F900FBE0F901F90189526E8230F029698
:10092000A11DB11DD2CF1F920F920FB60F921124AD
:100930002F933F934F935F936F937F938F939F93E7
:10094000AF93BF93EF93FF9381EA91E00E94B801C8
:10095000FF91EF91BF91AF919F918F917F916F9197
:100960005F914F913F912F910F900FBE0F901F906D
:1009700018951F920F920FB60F9211242F938F93F9
:100980009F93EF93FF93E091B101F091B2018081C9
:10099000E091B701F091B80182FD1BC09081809178
:1009A000BA018F5F8F732091BB01821741F0E091F4
:1009B000BA01F0E0EF55FE4F958F8093BA01FF9199
:1009C000EF919F918F912F910F900FBE0F901F90DD
:1009D00018958081F4CF1F920F920FB60F921124B9
:1009E0002F933F934F935F936F937F938F939F9337
:1009F000AF93BF93CF93DF93EF93FF9380917001F9
:100A0000C0917101D0E087FF24C010928500109240
:100A10008400809170018F5F8093700180917001DC
:100A2000082E000C990B8C179D0724F480917001FF
:100A30008C30C4F1809184009091850004968034BC
:100A40009C4908F47AC080918400909185000496B6
:100A500076C080917001082E000C990B8C179D07B1
:100A6000C4F6E09170018E2FEE0F990BFC01EE0F92
:100A7000FF1FE80FF91FEE58FE4F808186FFC9CF98
:100A8000E09170018E2FEE0F990BFC01EE0FFF1F0E
:100A9000E80FF91FEE58FE4F808160E08F730E94CF
:100AA0008800B7CF2091840030918500E0917001DB
:100AB0008E2FEE0F990BFC01EE0FFF1FE80FF91FB1
:100AC000EE58FE4F81819281820F931F909389008F
:100AD00080938800E09170018E2FEE0F990BFC013E
:100AE000EE0FFF1FE80FF91FEE58FE4F808186FFC3
:100AF00011C0E09170018E2FEE0F990BFC01EE0FEB
:100B0000FF1FE80FF91FEE58FE4F808161E08F73E1
:100B10000E948800FF91EF91DF91CF91BF91AF913B
:100B20009F918F917F916F915F914F913F912F9105
:100B30000F900FBE0F901F90189580E49CE9909342
:100B40008900809388008FEF80937001E3CFFC01D0
:100B5000909171019C3098F481E0890F809371012C
:100B60009083892F90E0FC01EE0FFF1FE80FF91F23
:100B7000EE58FE4F88EB9BE09283818308958FEFC0
:100B800080830895E1EAF1E01382128288EE93E017
:100B9000A0E0B0E084839583A683B7838AE091E0E8
:100BA0009183808385EC90E09587848784EC90E046
:100BB0009787868780EC90E0918B808B81EC90E02A
:100BC000938B828B82EC90E0958B848B86EC90E00B
:100BD000978B868B118E128E138E148E80E592E089
:100BE0000E94A7058DE492E00E94A7058AE492E0A6
:100BF0000E94A70587E492E00E94A70584E492E0A2
:100C00000E94A70568E271E08EE392E00C94B203C3
:100C1000CF93DF93CDB7DEB7A7970FB6F894DEBFBB
:100C20000FBECDBF789484B5826084BD84B58160E9
:100C300084BD85B5826085BD85B5816085BD8091A7
:100C40006E00816080936E0010928100809181001F
:100C50008260809381008091810081608093810017
:100C6000809180008160809380008091B1008460D9
:100C70008093B1008091B00081608093B00080913A
:100C80007A00846080937A0080917A0082608093F9
:100C90007A0080917A00816080937A0080917A0056
:100CA000806880937A001092C10065E070E080E572
:100CB00092E00E94C30266E070E08DE492E00E9440
:100CC000C30267E070E08AE492E00E94C30269E038
:100CD00070E087E492E00E94C3026AE070E084E47E
:100CE00092E00E94C302E091B101F091B20182E072
:100CF0008083E091AD01F091AE011082E091AF01EF
:100D0000F091B0018FEC80831092B901E091B501B0
:100D1000F091B60186E08083E091B301F091B401D7
:100D2000808180618083E091B301F091B401808182
:100D300088608083E091B301F091B4018081806884
:100D40008083E091B301F091B40180818F7D808335
:100D500088E893E1A0E0B0E08093A5019093A6011C
:100D6000A093A701B093A80188E191E00E943B0302
:100D700086E291E00E943B0389E291E00E943B03FE
:100D800086E291E00E943B036AE570E080E592E034
:100D90000E94470266E970E08DE492E00E944702FB
:100DA0000E94D4004B015C0124EFC22EDD24D394B9
:100DB000E12CF12C0E94D400681979098A099B0959
:100DC000683E734081059105A8F321E0C21AD1085D
:100DD000E108F10888EE880E83E0981EA11CB11C82
:100DE000C114D104E104F10429F78AE0482E512C02
:100DF000612C712C90E0892E90E0992E81EA91E08F
:100E00000E949801181619060CF0E1C168E271E021
:100E1000CE0101960E94B2030E944A0197FD1BC0B9
:100E20008AA31BA20D811E810F5F1F4FB801CE0147
:100E300001960E948A03882379F329813A818D8162
:100E40009E81BE016E5D7F4F820F931F0E94F40B47
:100E50001E830D83E1CF80913E0290913F02009767
:100E600009F444C069817A8161157105E9F1409105
:100E70004002509141022D813E8142175307A0F15B
:100E80000E94F40B8D819E819093430280934202D5
:100E90001E821D82CE0101960E947703C0903E0201
:100EA000D0903F02C114D10441F000914202109150
:100EB000430276010115110589F500913E0210915A
:100EC0003F020115110509F465C0F80181918F01F8
:100ED000882309F45FC0082E000C990B0E94E30BD5
:100EE000F80131978083F1CF0E949D0A89819A8110
:100EF00090933F0280933E028B819C8190934102AC
:100F0000809340028D819E819093430280934202A0
:100F10001A8219821C821B82BBCF75015701FFEF19
:100F2000AF1ABF0AF7018081082E000C990B0E94AE
:100F30004909892B91F7015011090C0D1D1DF8016C
:100F40008081082E000C990B0E944909892B31F0F1
:100F50000E151F0518F001501109F1CFA8014F5FC0
:100F60005F4F4E195F095093430240934202CE14E3
:100F7000DF0420F4B701C6010E94EB0BE0913E02B2
:100F8000F0913F028091420290914302E80FF91FD5
:100F9000108293CF84E491E00E943B03409142028F
:100FA0005091430260913E0270913F0281EA91E0CC
:100FB0000E94FA0086E291E00E943B036FE471E038
:100FC000CE0101960E94B203CE0101960E94480311
:100FD000182FCE0101960E947703112309F453C004
:100FE0006091420270914302CE0182960E94E30317
:100FF000CE0182960E947F037093970160939601C1
:1010000082E591E00E943B03C0909601D090970149
:101010000D2C000CEE08FF08F7FEE5C06DE281EA3A
:1010200091E00E94DA0122273327A9012C193D09FA
:101030004E095F0919A28E010F5D1F4FCA01B90148
:10104000A30192010E94BE09605DF80162938F01C5
:10105000211531054105510589F70115110519F0D3
:10106000C8010E943B0386E291E00E943B0360912D
:1010700096017091970180E592E00E944702CE01AF
:1010800082960E94770364E671E0CE0101960E9489
:10109000B203CE0101960E944803182FCE0101969B
:1010A0000E9477031123C1F06091420270914302C4
:1010B000CE0101960E94E303CE0101960E947F03B8
:1010C00070939701609396018DE492E00E9447022D
:1010D000CE0101960E94770367E671E0CE0101968A
:1010E0000E94B203CE0101960E944803182FCE0140
:1010F00001960E9477031123C1F060914202709122
:101100004302CE0101960E94E303CE0101960E94A4
:101110007F0370939701609396018AE492E00E94A6
:101120004702CE0101960E9477036AE671E0CE0184
:1011300001960E94B203CE0101960E944803182F27
:10114000CE0101960E9477031123C1F06091420203
:1011500070914302CE0101960E94E303CE010196F5
:101160000E947F03709397016093960187E492E059
:101170000E944702CE0101960E9477036DE671E05E
:10118000CE0101960E94B203CE0101960E9448034F
:10119000182FCE0101960E9477031123C1F06091B0
:1011A000420270914302CE0101960E94E303CE01F8
:1011B00001960E947F03709397016093960184E4E7
:1011C00092E00E944702CE0101960E9477038114AB
:1011D000910409F413CE0E94A401882309F40ECED1
:1011E0000E9400000BCEA701960119A28E010F5D8F
:1011F0001F4FCA01B901A30192010E94BE09605D9F
:10120000F80162938F01211531054105510589F7D8
:1012100024CF8EE392E00C9477031F93FC0199276F
:101220008827BC01E89411911032E9F3193010F0CD
:101230001E30C8F31B3251F01D3249F4689406C0C9
:101240000E943409610F711D811D911D1191105370
:101250001A30B0F33EF490958095709561957F4F6C
:101260008F4F9F4F1F910895592F482F372F262FAB
:10127000660F771F881F991F660F771F881F991F9A
:10128000620F731F841F951F660F771F881F991F9A
:10129000089591110C945209803219F089508550AB
:1012A000C8F70895992788270895052E97FB1EF4FF
:1012B00000940E946C0957FD07D00E94BE0907FCEC
:1012C00003D04EF40C946C095095409530952195BF
:1012D0003F4F4F4F5F4F0895909580957095619562
:1012E0007F4F8F4F9F4F08950E94E009A59F900D5B
:1012F000B49F900DA49F800D911D11240895B7FFF8
:101300000C9474090E947409821B930B08952F9208
:101310003F924F925F926F927F928F929F92AF9285
:10132000BF92CF92DF92EF92FF920F931F93CF93D2
:10133000DF93CDB7DEB7CA1BDB0B0FB6F894DEBF69
:101340000FBECDBF09942A88398848885F846E848F
:101350007D848C849B84AA84B984C884DF80EE80D9
:10136000FD800C811B81AA81B981CE0FD11D0FB6E2
:10137000F894DEBF0FBECDBFED010895A1E21A2E95
:10138000AA1BBB1BFD010DC0AA1FBB1FEE1FFF1F29
:10139000A217B307E407F50720F0A21BB30BE40B79
:1013A000F50B661F771F881F991F1A9469F76095C0
:1013B0007095809590959B01AC01BD01CF0108957A
:1013C000A29FB001B39FC001A39F700D811D112486
:1013D000911DB29F700D811D1124911D0895991BBF
:1013E00079E004C0991F961708F0961B881F7A951C
:1013F000C9F780950895EE0FFF1F0590F491E02D39
:1014000009940F931F93CF93DF938230910510F4CB
:1014100082E090E0E0915502F091560230E020E049
:10142000B0E0A0E0309799F42115310509F44AC0E5
:10143000281B390B24303105D8F58A819B81611531
:10144000710589F1FB0193838283FE0111C0408104
:1014500051810281138148175907E0F04817590755
:1014600099F4109761F012960C93129713961C93AF
:101470003296CF01DF91CF911F910F910895009384
:10148000550210935602F4CF2115310551F0421741
:10149000530738F0A901DB019A01BD01DF01F80112
:1014A000C1CFEF01F9CF9093560280935502CDCF73
:1014B000FE01E20FF31F819391932250310939838A
:1014C0002883D7CF2091530230915402232B41F42B
:1014D0002091020130910301309354022093530272
:1014E00020910001309101012115310541F42DB702
:1014F0003EB74091040150910501241B350BE0914A
:101500005302F0915402E217F307A0F42E1B3F0B95
:101510002817390778F0AC014E5F5F4F2417350765
:1015200048F04E0F5F1F5093540240935302819333
:1015300091939FCFF0E0E0E09CCFCF93DF930097B3
:10154000E9F0FC01329713821282A0915502B0910A
:101550005602ED0130E020E01097A1F420813181A6
:10156000820F931F2091530230915402281739079C
:1015700009F061C0F0935402E0935302DF91CF91E0
:101580000895EA01CE17DF07E8F54A815B819E01E5
:1015900041155105B1F7E901FB83EA83499159915E
:1015A000C40FD51FEC17FD0761F48081918102966D
:1015B000840F951FE90199838883828193819B839E
:1015C0008A83F0E0E0E012968D919C91139700974A
:1015D000B9F52D913C911197CD010296820F931F81
:1015E00020915302309154022817390739F6309769
:1015F00051F51092560210925502B0935402A093E6
:101600005302BCCFD383C28340815181840F951F85
:10161000C817D90761F44E5F5F4F88819981480FE1
:10162000591F518340838A819B8193838283211533
:10163000310509F0B0CFF0935602E09355029ECFEA
:10164000FD01DC01C0CF13821282D7CFB0E0A0E051
:10165000ECE2FBE00C9489098C01009751F4CB017A
:101660000E94010A8C01C801CDB7DEB7E0E10C94FD
:10167000A509FC01E60FF71F9C0122503109E21772
:10168000F30708F49DC0D901CD91DC911197C617DD
:10169000D70798F0C530D10530F3CE0104978617EF
:1016A000970708F3C61BD70B2297C193D1936D936D
:1016B0007C93CF010E949D0AD6CF5B01AC1ABD0A74
:1016C0004C018C0E9D1EA0915502B0915602512CDA
:1016D000412CF12CE12C109731F58091530290911F
:1016E00054028815990509F05CC04616570608F0A3
:1016F00058C08091000190910101009741F48DB78D
:101700009EB74091040150910501841B950BE81789
:10171000F90708F055C0F0935402E0935302F90121
:1017200071836083A0CF8D919C91119712966C90DC
:10173000129713967C901397A815B90559F56C016B
:1017400042E0C40ED11CCA14DB0420F1AC014A19DA
:101750005B09DA011296159780F0628273825183D9
:101760004083D9016D937C93E114F10471F0D701AA
:101770001396FC93EE93129776CF22968C0F9D1FB3
:10178000F90191838083F301EFCFF0935602E09348
:10179000550269CF4816590608F42C017D01D30182
:1017A0009ACFCB010E94010A7C01009749F0AE015B
:1017B000B8010E94EB0BC8010E949D0A870153CF1C
:1017C00010E000E050CF9111089581548A5108F43F
:1017D000805E855A0895FB01DC0102C001900D92E4
:1017E00041505040D8F70895FB01DC0101900D9263
:1017F0000020E1F70895FB01DC014150504030F03A
:101800008D910190801919F40020B9F7881B990B6C
:10181000089510E0CDE5D0E004C0FE010E94FB0970
:101820002196CE35D107C9F7F894FFCF00005702B3
:10183000800000000000DA01FA0027012702980169
:1018400036018A0153595354454D2052454144595C
:101850002E000D0A0054727920747970696E673A0F
:10186000205331313830206F7220733131383000DD
:1018700052656365697665643A20007331004D6F87
:1018800076696E6720576169737420746F3A20001F
:0C189000733200733300733500733600B0
:107E0000112484B714BE81FFF0D085E080938100F7
:107E100082E08093C00088E18093C10086E0809377
:107E2000C20080E18093C4008EE0C9D0259A86E02C
:107E300020E33CEF91E0309385002093840096BBD3
:107E4000B09BFECF1D9AA8958150A9F7CC24DD24C4
:107E500088248394B5E0AB2EA1E19A2EF3E0BF2EE7
:107E6000A2D0813461F49FD0082FAFD0023811F036
:107E7000013811F484E001C083E08DD089C08234E0
:107E800011F484E103C0853419F485E0A6D080C0E4
:107E9000853579F488D0E82EFF2485D0082F10E0AE
:107EA000102F00270E291F29000F111F8ED06801E7
:107EB0006FC0863521F484E090D080E0DECF843638
:107EC00009F040C070D06FD0082F6DD080E0C81688
:107ED00080E7D80618F4F601B7BEE895C0E0D1E017
:107EE00062D089930C17E1F7F0E0CF16F0E7DF06D8
:107EF00018F0F601B7BEE89568D007B600FCFDCFD4
:107F0000A601A0E0B1E02C9130E011968C91119780
:107F100090E0982F8827822B932B1296FA010C0160
:107F200087BEE89511244E5F5F4FF1E0A038BF0790
:107F300051F7F601A7BEE89507B600FCFDCF97BE46
:107F4000E89526C08437B1F42ED02DD0F82E2BD052
:107F50003CD0F601EF2C8F010F5F1F4F84911BD097
:107F6000EA94F801C1F70894C11CD11CFA94CF0C13
:107F7000D11C0EC0853739F428D08EE10CD085E9AC
:107F80000AD08FE07ACF813511F488E018D01DD067
:107F900080E101D065CF982F8091C00085FFFCCF94
:107FA0009093C60008958091C00087FFFCCF809118
:107FB000C00084FD01C0A8958091C6000895E0E648
:107FC000F0E098E1908380830895EDDF803219F02E
:107FD00088E0F5DFFFCF84E1DECF1F93182FE3DFCA
:107FE0001150E9F7F2DF1F91089580E0E8DFEE27F6
:047FF000FF270994CA
:027FFE00040479
:00000001FF
